:100000000C942A000C941A010C943C000C943C00B3
:100010000C943C000C943C000C943C000C943C0070
:100020000C943C000C943C000C943C000C943C0060
:100030000C943C000C943C000C943C000C943C0050
:100040000C943C000C943C000C943C000C943C0040
:100050000C943C0011241FBECFE5D8E0DEBFCDBF1D
:1000600020E0A0E6B0E001C01D92A536B207E1F79E
:100070000E94F6020C9462030C94000080916000D0
:10008000882319F08130D1F1089560E081E40E9465
:10009000530161E081E40E94570162E081E40E9423
:1000A000570160E082E40E94570161E082E40E940F
:1000B000570162E082E40E9457010E94340360E02D
:1000C00081E40E9457011092640061E081E40E9483
:1000D0005E0181E08093640062E081E40E9453014C
:1000E0000E94340362E081E40E94570182E0809321
:1000F000640061E081E40E945E01089580916400E3
:10010000813099F0D8F1823009F060C060E082E47B
:100110000E9453010E94340362E081E40E9457016F
:1001200060E082E40E94570151C060E081E40E94D7
:10013000570162E082E40E94530121E030E042E492
:1001400050E061E070E081E490E00E94940161E0A1
:1001500081E40E94570161E082E40E94570162E05D
:1001600082E40E94570160E082E40E94530162E051
:1001700081E40E9453010E94340328C060E081E4BE
:100180000E94570162E082E40E94530121E030E0C6
:1001900042E450E061E070E081E490E00E9494016C
:1001A00061E081E40E94570161E082E40E9457010E
:1001B00062E082E40E94570160E082E40E94530101
:1001C00062E081E40E9453010E94340362E081E412
:1001D0000E94570160E082E40E94570121E030E074
:1001E00042E450E061E070E081E490E00E9494011C
:1001F00061E081E40E94570161E082E40E945701BE
:1002000060E082E40E94570162E082E40E945301B0
:1002100060E081E40E94530180916400813039F4F0
:100220000E94340360E081E40E9457010895109217
:10023000600008951F920F920FB60F9211242F9312
:100240003F934F935F936F937F938F939F93AF935E
:10025000BF93EF93FF9387EA91E60197F1F700C010
:10026000000043E650E062E084E40E945001809187
:100270006300813021F4809360000E943E00FF9172
:10028000EF91BF91AF919F918F917F916F915F910E
:100290004F913F912F910F900FBE0F901F90189587
:1002A0000E942D02089541E00E947602089540E0E8
:1002B0000E94760208950E94CF0208950F931F9323
:1002C000CF93DF93182F062F83B7846083BFC0E0DE
:1002D000D0E01EC008B600FEFDCF9E01ABEABAEA30
:1002E0000E94530396958795969587959C01220FBA
:1002F000331F820F931F880F991FC817D90721F446
:10030000602F812F0E945B0188B7816088BF219692
:10031000CD34D105F8F2602F812F0E945701DF9173
:10032000CF911F910F910895EF92FF920F931F931A
:10033000CF93DF93182F062FE42EF22E83B784601D
:1003400083BFC0E0D0E022C008B600FEFDCF9E0112
:10035000ABEABAEA0E9453039695879596958795DE
:100360009C01220F331F820F931F880F991FC817FC
:10037000D90741F4602F812F0E945B016F2D8E2DD4
:100380000E945B0188B7816088BF2196CD34D1057A
:10039000D8F2602F812F0E945701DF91CF911F91DA
:1003A0000F91FF90EF900895823409F18434D1F1D8
:1003B000813409F051C041110CC02AB381E090E0B2
:1003C00002C0880F991F6A95E2F7809582238ABB45
:1003D0000895413009F040C02AB381E090E002C0A6
:1003E000880F991F6A95E2F7822B8ABB0895411105
:1003F0000CC027B381E090E002C0880F991F6A9576
:10040000E2F78095822387BB0895413029F527B311
:1004100081E090E002C0880F991F6A95E2F7822B75
:1004200087BB089541110CC021B381E090E002C068
:10043000880F991F6A95E2F78095822381BB089502
:10044000413051F421B381E090E002C0880F991F40
:100450006A95E2F7822B81BB08958234D9F0843407
:1004600079F1813409F041C079B381E090E09C01D9
:10047000062E02C0220F331F0A94E2F7872F90E066
:100480008223932302C0959587956A95E2F7FA0136
:100490008083089576B381E090E09C01062E02C02F
:1004A000220F331F0A94E2F7872F90E082239323D1
:1004B00002C0959587956A95E2F7FA0180830895C1
:1004C00070B381E090E09C01062E02C0220F331F22
:1004D0000A94E2F7872F90E08223932302C0959538
:1004E00087956A95E2F7FA0180830895823409F1CD
:1004F0008434D1F1813409F051C041110CC02BB3C7
:1005000081E090E002C0880F991F6A95E2F780951C
:1005100082238BBB0895413009F040C02BB381E0AA
:1005200090E002C0880F991F6A95E2F7822B8BBB7F
:10053000089541110CC028B381E090E002C0880FFB
:10054000991F6A95E2F78095822388BB0895413010
:1005500029F528B381E090E002C0880F991F6A95C1
:10056000E2F7822B88BB089541110CC022B381E0D1
:1005700090E002C0880F991F6A95E2F78095822368
:1005800082BB0895413051F422B381E090E002C073
:10059000880F991F6A95E2F7822B82BB08958234F7
:1005A00079F08434C1F0813401F52BB381E090E01F
:1005B00002C0880F991F6A95E2F782278BBB0895C6
:1005C00028B381E090E002C0880F991F6A95E2F796
:1005D000822788BB089522B381E090E002C0880F93
:1005E000991F6A95E2F7822782BB0895CF93DF9324
:1005F0001F92CDB7DEB741E060E081E40E94D401F4
:1006000040E061E081E40E94D40141E062E081E4E5
:100610000E94D40140E062E082E40E94D40120E024
:1006200030E041E450E061E070E081E490E00E945D
:10063000940122E030E042E450E062E070E081E4C6
:1006400090E00E9494011982AE014F5F5F4F61E01C
:1006500081E40E942D028981882369F240E062E0F2
:1006600081E40E947602C7CF83B7846083BF0FC046
:1006700008B600FEFDCF88B7816088BF8091610019
:100680009091620001969093620080936100809146
:100690006100909162008D34910550F310926200D8
:1006A000109261000895A29FB001B39FC001A39F63
:1006B000700D811D1124911DB29F700D811D11249B
:0806C000911D0895F894FFCF8D
:00000001FF
